:020000040800F2
:1000000000500020F5130008A1840008A384000814
:10001000A5840008A7840008A98400080000000047
:10002000000000000000000000000000AB84000899
:10003000AD84000800000000AF840008B18400080F
:10004000391400083914000839140008391400085C
:10005000391400083914000839140008391400084C
:100060003914000839140008391400081D890008E3
:10007000391400083914000839140008391400082C
:1000800039140008391400081987000839140008C9
:10009000391400083914000839140008391400080C
:1000A000391400083914000839140008A185000823
:1000B00039140008F585000849860008391400083D
:1000C00039140008391400083914000839140008DC
:1000D00039140008E9890008258A00083914000845
:1000E0003914000839140008391400080000000011
:1000F0000000000000000000000000000000000000
:0C01000000000000000000005FF808F1A3
:10011000844641EA000313F0030349D1403A23D354
:100120000B6803604B6843608B688360CB68C36077
:100130000B6903614B6943618B698361CB69C3615F
:100140000B6A03624B6A43628B6A8362CB6AC36247
:100150000B6B03634B6B43638B6B8363CB6BC3632F
:1001600040304031403ADBD230320BD30B68036071
:100170004B6843608B688360CB68C360103010317C
:10018000103AF3D20C3205D351F8043B40F8043B4B
:10019000043AF9D2043208D0D2071CBF11F8013B4F
:1001A00000F8013B01D30B8803806046704700BF15
:1001B000082A13D38B07B1D010F00303AED0C3F1DC
:1001C0000403D21ADB071CBF11F8013B00F8013B06
:1001D000A4D331F8023B20F8023B9FE7043AD9D37D
:1001E000013A11F8013B00F8013BF9D20B7803709A
:1001F0004B7843708B7883706046704780EA010CBF
:100200001CF0030F37D110F0030C20F0030021F095
:10021000030150F8042B08BF51F8043B0ED08CF0BA
:10022000030C6FF07F434FEACC0C23FA0CFC51F81F
:10023000043B42EA0C0243EA0C0300BFA2F1013C7A
:100240009A4201BF2CEA020C1CF0803F50F8042BAC
:1002500051F8043BF2D04FEA02604FEA1222012823
:1002600028BFB0EB036F08BF1B0AF4D003F0FF03F5
:10027000000EC01A704710F0030F0AD010F8012BBF
:1002800011F8013B012A28BF9A42F4D0A2EB0300E7
:1002900070474DF8045D50F8042B01F0030521F080
:1002A000030151F8043B022D26D04DD822F07F45A2
:1002B000B5EB132FA2F1013C2CEA020C0DD11CF07E
:1002C000803C08BF51F8043B0AD185EA0205B5EB32
:1002D000036F0CD150F8042BE8E74FEA13235BE0DF
:1002E0003CF07F4C54D10B784FEA126554E04FEA52
:1002F000126503F0FF034FE04FEA0245A2F1013C13
:100300004FEA15452CEA020CB5EB134F18D11CF03F
:10031000803C08BF51F8043B07D185EA0205B5EBE4
:10032000034F09D150F8042BE6E75FEA0C4C2FD1BC
:100330000B884FEA12452FE04FEA03434FEA12457C
:100340004FEA134328E000BF02F0FF05B5EB136F3F
:10035000A2F1013C2CEA020C0DD11CF0803C08BF3C
:1003600051F8043B0AD185EA0205B5EB032F0AD107
:1003700050F8042BE8E74FEA13630DE012F0FF0F8B
:1003800006D051F8043B4FEA122523F07F4303E0E7
:100390004FF0000020BC704705F0FF0203F0FF00A3
:1003A000012828BF904204BF2D0A1B0AF4D0A2EBFB
:1003B000000020BC704700BF81F0004102E000BF98
:1003C00083F0004330B54FEA41044FEA430594EA15
:1003D000050F08BF90EA020F1FBF54EA000C55EA50
:1003E000020C7FEA645C7FEA655C00F0E2804FEA21
:1003F0005454D4EB5555B8BF6D420CDD2C4480EA03
:10040000020281EA030382EA000083EA010180EA32
:10041000020281EA0303362D88BF30BD11F0004F80
:100420004FEA01314FF4801C4CEA113102D04042B6
:1004300061EB410113F0004F4FEA03334CEA1333F1
:1004400002D0524263EB430394EA050F00F0A78009
:10045000A4F10104D5F1200E0DDB02FA0EFC22FA04
:1004600005F2801841F1000103FA0EF2801843FAF8
:1004700005F359410EE0A5F120050EF1200E012AE9
:1004800003FA0EFC28BF4CF0020C43FA05F3C01827
:1004900051EBE37101F0004507D54FF0000EDCF1A0
:1004A000000C7EEB00006EEB0101B1F5801F1BD349
:1004B000B1F5001F0CD349085FEA30004FEA3C0C4D
:1004C00004F101044FEA445212F5800F80F09A8043
:1004D000BCF1004F08BF5FEA500C50F1000041EB47
:1004E000045141EA050130BD5FEA4C0C404141EB4B
:1004F0000101013C28BFB1F5801FE9D291F0000F46
:1005000004BF01460020B1FA81F308BF2033A3F1F4
:100510000B03B3F120020CDA0C3208DD02F1140CEB
:10052000C2F10C0201FA0CF021FA02F10CE002F126
:100530001402D8BFC2F1200C01FA02F120FA0CFC1F
:10054000DCBF41EA0C019040E41AA2BF01EB045168
:10055000294330BD6FEA04041F3C1CDA0C340EDC66
:1005600004F11404C4F1200220FA04F001FA02F3A9
:1005700040EA030021FA04F345EA030130BDC4F167
:100580000C04C4F1200220FA02F001FA04F340EA5C
:100590000300294630BD21FA04F0294630BD94F00D
:1005A000000F83F4801306BF81F480110134013DF4
:1005B0004EE77FEA645C18BF7FEA655C29D094EA65
:1005C000050F08BF90EA020F05D054EA000C04BFE3
:1005D0001946104630BD91EA030F1EBF00210020CE
:1005E00030BD5FEA545C05D14000494128BF41F06D
:1005F000004130BD14F580043CBF01F5801130BDD1
:1006000001F0004545F0FE4141F470014FF000005B
:1006100030BD7FEA645C1ABF194610467FEA655C0C
:100620001CBF0B46024650EA013406BF52EA0335AE
:1006300091EA030F41F4002130BD00BF90F0000F9C
:1006400004BF0021704730B54FF4806404F13204D8
:100650004FF000054FF0000150E700BF90F0000F91
:1006600004BF0021704730B54FF4806404F13204B8
:1006700010F0004548BF40424FF000013EE700BF88
:1006800042004FEAE2014FEA31014FEA02701FBF18
:1006900012F07F4393F07F4F81F06051704732F04A
:1006A0007F4208BF704793F07F4F04BF41F40021A1
:1006B000704730B54FF4607401F0004521F00041FF
:1006C0001CE700BF50EA010208BF704730B54FF089
:1006D00000050AE050EA010208BF704730B511F08A
:1006E000004502D5404261EB41014FF4806404F1C2
:1006F00032045FEA915C3FF4D8AE4FF003025FEA48
:10070000DC0C18BF03325FEADC0C18BF033202EBCB
:10071000DC02C2F1200300FA03FC20FA02F001FA25
:1007200003FE40EA0E0021FA02F11444BDE600BFC8
:1007300070B54FF0FF0C4CF4E06C1CEA11541DBF77
:100740001CEA135594EA0C0F95EA0C0F00F0DEF842
:100750002C4481EA030621EA4C5123EA4C5350EA27
:10076000013518BF52EA033541F4801143F4801378
:1007700038D0A0FB02CE4FF00005E1FB02E506F009
:100780000042E0FB03E54FF00006E1FB03569CF05E
:10079000000F18BF4EF0010EA4F1FF04B6F5007F64
:1007A00064F5407404D25FEA4E0E6D4146EB0606D6
:1007B00042EAC62141EA55514FEAC52040EA5E505F
:1007C0004FEACE2EB4F1FD0C88BFBCF5E06F1ED809
:1007D000BEF1004F08BF5FEA500E50F1000041EB40
:1007E000045170BD06F0004646EA010140EA0200ED
:1007F00081EA0301B4EB5C04C2BFD4EB0C0541EA0F
:10080000045170BD41F480114FF0000E013C00F323
:10081000AB8014F1360FDEBF002001F0004170BD47
:10082000C4F10004203C35DA0C341BDC04F1140460
:10083000C4F1200500FA05F320FA04F001FA05F2EC
:1008400040EA020001F0004221F0004110EBD370B9
:1008500021FA04F642EB06015EEA430E08BF20EAE5
:10086000D37070BDC4F10C04C4F1200500FA04F388
:1008700020FA05F001FA04F240EA020001F000411A
:1008800010EBD37041F100015EEA430E08BF20EA8D
:10089000D37070BDC4F1200500FA05F24EEA020ED5
:1008A00020FA04F301FA05F243EA020321FA04F004
:1008B00001F0004121FA04F220EA020000EBD370BB
:1008C0005EEA430E08BF20EAD37070BD94F0000FBB
:1008D0000FD101F00046400041EB010111F4801FEF
:1008E00008BF013CF7D041EA060195F0000F18BFA0
:1008F000704703F00046520043EB030313F4801FDC
:1009000008BF013DF7D043EA0603704794EA0C0F95
:100910000CEA135518BF95EA0C0F0CD050EA4106AB
:1009200018BF52EA4306D1D181EA030101F0004128
:100930004FF0000070BD50EA410606BF1046194650
:1009400052EA430619D094EA0C0F02D150EA01365C
:1009500013D195EA0C0F05D152EA03361CBF10469D
:1009600019460AD181EA030101F0004141F0FE413C
:1009700041F470014FF0000070BD41F0FE4141F4C0
:10098000780170BD70B54FF0FF0C4CF4E06C1CEAC0
:1009900011541DBF1CEA135594EA0C0F95EA0C0F75
:1009A00000F0A7F8A4EB050481EA030E52EA033530
:1009B0004FEA013100F088804FEA03334FF0805551
:1009C00045EA131343EA12634FEA022245EA11157E
:1009D00045EA10654FEA00260EF000419D4208BF2F
:1009E000964244F1FD0404F5407402D25B084FEADC
:1009F0003202B61A65EB03055B084FEA32024FF488
:100A000080104FF4002CB6EB020E75EB030E22BFE4
:100A1000B61A754640EA0C005B084FEA3202B6EBA4
:100A2000020E75EB030E22BFB61A754640EA5C0053
:100A30005B084FEA3202B6EB020E75EB030E22BFE3
:100A4000B61A754640EA9C005B084FEA3202B6EBE4
:100A5000020E75EB030E22BFB61A754640EADC00A3
:100A600055EA060E18D04FEA051545EA16754FEA05
:100A700006164FEAC30343EA52734FEAC2025FEA23
:100A80001C1CC0D111F4801F0BD141EA00014FF0B2
:100A900000004FF0004CB6E711F4801F04BF014383
:100AA0000020B4F1FD0C88BFBCF5E06F3FF6AFAE9F
:100AB000B5EB030C04BFB6EB020C5FEA500C50F12F
:100AC000000041EB045170BD0EF0004E4EEA1131B2
:100AD00014EB5C04C2BFD4EB0C0541EA045170BDB9
:100AE00041F480114FF0000E013C90E645EA060EFD
:100AF0008DE60CEA135594EA0C0F08BF95EA0C0F2B
:100B00003FF43BAF94EA0C0F0AD150EA01347FF472
:100B100034AF95EA0C0F7FF425AF104619462CE749
:100B200095EA0C0F06D152EA03353FF4FDAE1046AC
:100B3000194622E750EA410618BF52EA43067FF4FD
:100B4000C5AE50EA41047FF40DAF52EA43057FF48D
:100B5000EBAE12E74FF0FF3C06E000BF4FF0010C98
:100B600002E000BF4FF0010C4DF804CD4FEA410CFC
:100B70007FEA6C5C4FEA430C18BF7FEA6C5C1BD0C9
:100B800001B050EA410C0CBF52EA430C91EA030F4A
:100B900002BF90EA020F0020704710F1000F91EAA7
:100BA000030F58BF994208BF90422CBFD8176FEA75
:100BB000E37040F0010070474FEA410C7FEA6C5C43
:100BC00002D150EA013C07D14FEA430C7FEA6C5C4A
:100BD000D6D152EA033CD3D05DF8040B704700BF76
:100BE0008446104662468C461946634600E000BFC4
:100BF00001B5FFF7B7FF002848BF10F1000F01BD96
:100C00004DF808EDFFF7F4FF0CBF012000205DF860
:100C100008FB00BF4DF808EDFFF7EAFF34BF0120E5
:100C200000205DF808FB00BF4DF808EDFFF7E0FF7E
:100C300094BF012000205DF808FB00BF4DF808EDCF
:100C4000FFF7CEFF94BF012000205DF808FB00BF36
:100C50004DF808EDFFF7C4FF34BF012000205DF818
:100C600008FB00BF4FEA410C7FEA6C5C02D150EAFE
:100C7000013C0AD14FEA430C7FEA6C5C02D152EA94
:100C8000033C02D14FF0000070474FF00100704765
:100C90004FEA410212F5001215D211D56FF47873A4
:100CA000B3EB625212D94FEAC12343F0004343EA47
:100CB000505311F0004F23FA02F018BF4042704722
:100CC0004FF00000704750EA013005D111F00040AC
:100CD00008BF6FF0004070474FF00000704700BF42
:100CE0004A0011D212F5001211D20DD56FF47873AB
:100CF000B3EB62520ED44FEAC12343F0004343EA00
:100D0000505323FA02F070474FF00000704750EA4A
:100D1000013002D14FF0FF3070474FF000007047B4
:100D20004FEA4102B2F1E04324BFB3F5001CDCF10D
:100D3000FE5C0DD901F0004C4FEAC0024CEA507045
:100D4000B2F1004F40EB830008BF20F00100704774
:100D500011F0804F21D113F13872BCBF01F0004077
:100D6000704741F480114FEA5252C2F11802C2F1A9
:100D7000200C10FA0CF320FA02F018BF40F001002A
:100D80004FEAC1234FEAD32303FA0CFC40EA0C00DC
:100D900023FA02F34FEA4303CCE77FEA625307D119
:100DA00050EA01331EBF4FF0FE4040F44000704750
:100DB00001F0004040F0FE4040F40000704700BFEA
:100DC00080F0004002E000BF81F0004142001FBF00
:100DD0005FEA410392EA030F7FEA226C7FEA236C09
:100DE0006AD04FEA1262D2EB1363C1BFD2184140FE
:100DF00048404140B8BF5B42192B88BF704710F094
:100E0000004F40F4000020F07F4018BF404211F036
:100E1000004F41F4000121F07F4118BF494292EA9E
:100E2000030F3FD0A2F1010241FA03FC10EB0C00CA
:100E3000C3F1200301FA03F100F0004302D5494257
:100E400060EB4000B0F5000F13D3B0F1807F06D304
:100E500040084FEA310102F10102FE2A51D2B1F1FC
:100E6000004F40EBC25008BF20F0010040EA0300F1
:100E70007047490040EB0000013A28BFB0F5000F71
:100E8000EDD2B0FA80FCACF1080CB2EB0C0200FA27
:100E90000CF0AABF00EBC25052421843BCBFD04076
:100EA0001843704792F0000F81F4000106BF80F4F0
:100EB00000000132013BB5E74FEA41037FEA226CB3
:100EC00018BF7FEA236C21D092EA030F04D092F07E
:100ED000000F08BF0846704790EA010F1CBF0020B2
:100EE000704712F07F4F04D1400028BF40F000400F
:100EF000704712F100723CBF00F50000704700F02F
:100F0000004343F0FE4040F4000070477FEA226255
:100F100016BF08467FEA23630146420206BF5FEA26
:100F2000412390EA010F40F4800070474FF0000326
:100F300004E000BF10F0004348BF40425FEA000CED
:100F400008BF704743F0964301464FF000001CE095
:100F500050EA010208BF70474FF000030AE000BFEB
:100F600050EA010208BF704711F0004302D5404229
:100F700061EB41015FEA010C02BF8446014600209B
:100F800043F0B64308BFA3F18053A3F50003BCFAB6
:100F90008CF2083AA3EBC25310DB01FA02FC634463
:100FA00000FA02FCC2F12002BCF1004F20FA02F26A
:100FB00043EB020008BF20F00100704702F120025D
:100FC00001FA02FCC2F1200250EA4C0021FA02F2BE
:100FD00043EB020008BF20EADC7070474FF0FF0CC3
:100FE0001CEAD0521EBF1CEAD15392EA0C0F93EABE
:100FF0000C0F6FD01A4480EA010C400218BF5FEA60
:1010000041211ED04FF0006343EA501043EA5111D2
:10101000A0FB01310CF00040B1F5000F3EBF4900CC
:1010200041EAD3715B0040EA010062F17F02FD2AD0
:101030001DD8B3F1004F40EBC25008BF20F00100B3
:10104000704790F0000F0CF0004C08BF49024CEACA
:10105000502040EA51207F3AC2BFD2F1FF0340EA5C
:10106000C250704740F400004FF00003013A5DDCCD
:1010700012F1190FDCBF00F000407047C2F100020E
:10108000410021FA02F1C2F1200200FA02FC5FEAFB
:10109000310040F1000053EA4C0308BF20EADC7045
:1010A000704792F0000F00F0004C02BF400010F4B7
:1010B000000F013AF9D040EA0C0093F0000F01F064
:1010C000004C02BF490011F4000F013BF9D041EA86
:1010D0000C018FE70CEAD15392EA0C0F18BF93EA88
:1010E0000C0F0AD030F0004C18BF31F0004CD8D1B2
:1010F00080EA010000F00040704790F0000F17BF39
:1011000090F0004F084691F0000F91F0004F14D07E
:1011100092EA0C0F01D142020FD193EA0C0F03D1D6
:101120004B0218BF084608D180EA010000F00040D9
:1011300040F0FE4040F40000704740F0FE4040F4B4
:10114000400070474FF0FF0C1CEAD0521EBF1CEA53
:10115000D15392EA0C0F93EA0C0F69D0A2EB030271
:1011600080EA010C49024FEA402037D04FF080530B
:1011700043EA111143EA10130CF000408B4238BFD0
:101180005B0042F17D024FF4000C8B4224BF5B1ADE
:1011900040EA0C00B3EB510F24BFA3EB510340EA2C
:1011A0005C00B3EB910F24BFA3EB910340EA9C00DA
:1011B000B3EBD10F24BFA3EBD10340EADC001B014A
:1011C00018BF5FEA1C1CE0D1FD2A3FF650AF8B42EE
:1011D00040EBC25008BF20F0010070470CF0004CFB
:1011E0004CEA50207F32C2BFD2F1FF0340EAC25026
:1011F000704740F400004FF00003013A37E792F0E7
:10120000000F00F0004C02BF400010F4000F013A44
:10121000F9D040EA0C0093F0000F01F0004C02BF3F
:10122000490011F4000F013BF9D041EA0C0195E7A8
:101230000CEAD15392EA0C0F08D142027FF47DAF41
:1012400093EA0C0F7FF470AF084676E793EA0C0F31
:1012500004D14B023FF44CAF08466EE730F0004C2F
:1012600018BF31F0004CCAD130F000427FF45CAFBF
:1012700031F000437FF43CAF5FE700BF4FF0FF3C2D
:1012800006E000BF4FF0010C02E000BF4FF0010C80
:101290004DF804CD4FEA40024FEA41037FEA226C49
:1012A00018BF7FEA236C11D001B052EA530C18BF6B
:1012B00090EA010F58BFB2EB030088BFC81738BFD0
:1012C0006FEAE17018BF40F0010070477FEA226CBE
:1012D00002D15FEA402C05D17FEA236CE4D15FEABA
:1012E000412CE1D05DF8040B704700BF84460846EE
:1012F0006146FFE70FB5FFF7C9FF002848BF10F1AF
:10130000000F0FBD4DF808EDFFF7F4FF0CBF0120F3
:1013100000205DF808FB00BF4DF808EDFFF7EAFF7D
:1013200034BF012000205DF808FB00BF4DF808ED38
:10133000FFF7E0FF94BF012000205DF808FB00BF2D
:101340004DF808EDFFF7D2FF94BF012000205DF8B3
:1013500008FB00BF4DF808EDFFF7C8FF34BF0120C0
:1013600000205DF808FB00BF4FEA4002B2F1FE4FDB
:101370000FD34FF09E03B3EB12620DD94FEA002357
:1013800043F0004310F0004F23FA02F018BF404230
:1013900070474FF00000704712F1610F01D1420217
:1013A00005D110F0004008BF6FF0004070474FF0CB
:1013B0000000704742000ED2B2F1FE4F0BD34FF047
:1013C0009E03B3EB126209D44FEA002343F00043BB
:1013D00023FA02F070474FF00000704712F1610FDE
:1013E00001D1420202D14FF0FF3070474FF00000B0
:1013F000704700BF002103E00A4B5B5843500431A3
:1014000009480A4B42189A42F6D3094A02E00023DF
:1014100042F8043B074B9A42F9D30FF071FA00F0FF
:101420000DF870476870010800000020B40B002020
:10143000B40B0020B40B0020FEE700002DE9F84FAC
:10144000984B9847984B9847984B9847984B984794
:10145000984B9847984B984798499948994B984783
:10146000994B9847994B9847994B9847994B984770
:10147000994C012240F225519048A047012240F2A8
:1014800025519648A047964B984749F2413680B27D
:10149000B042944D944C40F08F8128802080934B33
:1014A0009847934B9847934B934A00251A60934B68
:1014B00002F5D4721A602023914CDFF848B2E3831E
:1014C000914BDFF848A21D815D81DFF84492914B7A
:1014D000914E924FDFF848821D808BF80050AAF899
:1014E0000050A9F80050B047B847C0478D4B8E4A0E
:1014F00018460E2190478B4B1A8B4AF24F539A4253
:1015000000F06C81E02389480A2103700423A0F8CD
:101510000110C3709BF80030704A0371BAF80030B4
:101520004371B9F80030C3807A4B1B880381804B2C
:1015300098470B23A581A3807E4A7F4B154603F174
:10154000100153F8040B8B4242F8040BF9D17B4B8A
:101550007B4A03F1100153F8040B8B4242F8040B51
:10156000F9D1744B08211A46DFF8D8910A20C847F0
:101570002B78DFF8D491212B18BFA38B734D1CBFA0
:1015800043F02003A383724B984745F25550714BAB
:1015900098470320704B9847D12364480621037075
:1015A0000123C3700023454A0371A0F80110604B6A
:1015B0009847C847694B9847A3880B2B0CBF684BCB
:1015C000684B9847A388012B01D00F2B01D1664BA4
:1015D0009847A388022B01D1644B9847AB8ADA075E
:1015E00006D523F00103AB8200217C20604B984795
:1015F000DFF880A1D047DFF880B16048D847604865
:10160000D847AB681B053ED5E38BD8070BD5B04751
:10161000B847C0470B215B485B4B984718B1E38B39
:1016200023F00103E383D047E38B19060BD5B047C2
:10163000B847C0470C215548534B984718B1E38B26
:1016400023F08003E383D047E38BDA050BD5B04763
:10165000B847C0470D214E484B4B984718B1E38B14
:1016600023F48073E383D047E38B9B050BD50E21D6
:101670004848DFF824A1D0470F214848D047E38BE2
:1016800023F40073E383464A1388D80591D5AB8AC7
:1016900099078ED523F00203AB8292F8BC30002B61
:1016A00087D07FE02D180008B518000859100108F0
:1016B0002919000861190008551C0008003801406C
:1016C000EC1B0108C1190008118B000871F2000819
:1016D00055AF000841230008A90C01080044004050
:1016E000F91D0008BC0B0020BE0B0020492C00088F
:1016F000E51A0008B40B002058F6FF1FB80B0020B5
:101700002C470020590C0020440D0020500D0020D3
:10171000520D0020540D0020E9A600087525000890
:1017200031A8000860470020F1A80008BC4600204E
:10173000B18C0008840C002090200108B01F010823
:10174000940C002041A900080DAF0008C00B002038
:10175000C512010869120108911201089DAF000825
:1017600069B3000819B20008219F0008F59F00081E
:1017700001B00008B5120108018C0008BC0D002062
:10178000AC0F00206C120020B1A80008EA44002031
:101790000A450020DC0C002011660008100D002016
:1017A0008C120020013BDBB282F8BC30002B7FF4AE
:1017B00000AF0F4B9847FCE60E4B98470E4B9847EF
:1017C0000E4B984204D147F289732E80238066E63F
:1017D0000B4B984749F225332B80F7E7094B984785
:1017E000094B1D800423A380084B9847A4E600BF43
:1017F000D574000851210008C522000852858500D3
:10180000ED1E0008C9260008020C0020D53B000888
:101810000449054BCA6802F4E0621343CB60BFF38E
:101820004F8FFEE700ED00E00400FA0510B51B4BFA
:101830001B4C152223601B4B4CF25030636000237D
:10184000A360E36023616261174AE26145F63D628D
:10185000A26123626362236813F4003F63681DBFC3
:1018600023F003036360636823F480331FBF43F0F6
:1018700001036360636843F4803363600B4B236050
:101880000B4B984723689B0107D5636823F003033C
:101890006360636843F00203636010BD8100010070
:1018A0000010024000841D06070082008100010133
:1018B000E5260008154B16495A684FF0223022F0F1
:1018C000E0625A605A6842F000725A60114A0A6037
:1018D000114A4A604FF6FF72CA60C1F800040F480F
:1018E000C1F804040E48C1F80C24C1F80408C1F87A
:1018F0000C2844210B4A11605A6822F440725A6045
:101900005A6842F400725A60704700BF00000140FC
:1019100000080140008AA244B1483423424A2228E8
:1019200000002022001401401FB500234FF4E132D3
:10193000CDE900234FF44022064C0292204669462E
:10194000ADF80C30044B984701212046034B9847D3
:1019500004B010BD00380140B90A01083D0C01086F
:101960001FB500234FF41642CDE900234FF4402267
:10197000064C029220466946ADF80C30044B98475D
:1019800001212046034B984704B010BD004400409D
:10199000B90A01083D0C010870B505460C46064E13
:1019A00080212046B0470028FAD029462046BDE8CD
:1019B0007040024B184700BF3D0E0108990D010809
:1019C00070B50D46044E441E14F8010F00B970BDE9
:1019D0002946B047F8E700BF991900084FF0804347
:1019E000002250214FF4E0401A8099801A819A8198
:1019F0001A829A82188399834FF488711984082176
:101A00009A8419850921998541F2883199860521A1
:101A100019879A87A3F84020A3F84820A3F84C2000
:101A200084221A80704700008022104B17211A80F0
:101A300000229A8019814FF440519A811A829A8229
:101A4000198310219A8319844FF6FF719A841A859D
:101A500099850521998619879A87A3F84020A3F8CC
:101A60004820A3F84C2081221A80704700040040CF
:101A70008022124B17211A8000229A801A829A82A1
:101A800019814FF480711A8399834FF4805119841E
:101A90004FF6FF719A841A85998547F6FF719A86E9
:101AA0001A87998740F2FF31A3F84010A3F8482025
:101AB000A3F84C209A8181221A80704700080040C8
:101AC00040F20542044BDA60044A1A61044A5A6142
:101AD00042F6A1229A607047000002404C24014067
:101AE000B01C00204FF0E02300229A6107221A6107
:101AF000014A5A61704700BF401901000022104B93
:101B000010491A6059601049996040F6FF71DA6017
:101B10001A615A619A61DA611A6259629A62DA62EA
:101B20001A635A639A639A6842F004029A609A6848
:101B30005207FCD59A6842F001029A60704700BFD4
:101B40000024014000028600000116000022104B14
:101B500010491A6059601049996040F6FF71DA60C7
:101B60001A615A619A61DA611A62596201219A62B4
:101B7000DA621A6359639A639A6842F004029A60BF
:101B80009A685207FCD59A6842F001029A60704741
:101B9000002801400100800000011E00002340F6E3
:101BA000FF72036043608360C360036143618361CC
:101BB000C361036242628362C362036343638363FC
:101BC000836843F00403836083685B07FCD5836804
:101BD00043F00103836070474163836843F001036E
:101BE000836003689B07FCD5C06C80B2704700001F
:101BF00030B54FF400514FF48044084B084D596103
:101C00005C61EA6802F47F420243EA604FF40042FA
:101C10005A611A611C61196130BD00BF001001409A
:101C2000000C01404FF400514FF48042074B10B5B7
:101C3000074C59611A61E26802F47F420243E26094
:101C40004FF400425A611A61196110BD0010014041
:101C5000000C01402DE9F0414FF400450A26624C8A
:101C600041F28830614F2561B8474FF6E850656111
:101C7000B84725614FF6FF70013EB84716F0FF06E2
:101C8000F8D15B4DCF205B4CA8473046A047C12020
:101C9000A0473020A047ED20A8476720A047032099
:101CA000A0471220A0478120A047CB20A847392079
:101CB000A0472C20A0473046A0473420A047022050
:101CC000A047EA20A8473046A047A047E820A847F9
:101CD0008520A0470A20A0477820A047F720A847E2
:101CE0002020A047C020A8472620A047C120A84701
:101CF0000120A047C520A8472B20A0472F20A047A0
:101D0000C720A847A0473A20A8475520A04736201B
:101D1000A8472020A047B120A8473046A047182058
:101D2000A047B620A8470A20A047E220A047F220FB
:101D3000A8473046A0472620A8470120A047E0201A
:101D4000A8470F20A0471D20A0471A20A047092020
:101D5000A0470F20A0470920A0474620A047882081
:101D6000A0473920A0470520A0470F20A047032007
:101D7000A0470720A0470520A0473046A047E12004
:101D8000A8473046A0472220A0472520A04706208C
:101D9000A0471020A0470620A0473920A0472220B6
:101DA000A0474A20A0470A20A0471020A0470C20A7
:101DB000A0473820A0473A20A0470F20A047112075
:101DC000A84764244CF25030013CB84714F0FF049B
:101DD000F8D12920A8474CF25030B8473B46BDE81F
:101DE000F0414CF25030184700080140E526000849
:101DF000F11B0008251C00082DE9F843D320174BE0
:101E000098474FF40053DFF85880164CC8F8143048
:101E10004FF48043C8F810304FF044336420124E22
:101E20002360B047042500274FF480790A20C4F8C6
:101E30001490B047A368013DDBB215F0FF05C4F86C
:101E4000109043EA0727F1D14FF0333323604FF46A
:101E500000533846C8F81030BDE8F883F11B00087D
:101E600000100140000C0140E52600082DE9F84F64
:101E70004FF400574FF4804B81464FF40045184C07
:101E8000184E0220DFF860A06761C4F814B08846DD
:101E9000D047F368022003F47F4343EA1923F36039
:101EA00065612561F36803F47F4343EA0903F36046
:101EB00065612561C4F810B0D047F36803F47F432F
:101EC00043EA1823F36065612561F36803F47F43F7
:101ED00043EA0803F360656125612761BDE8F88F77
:101EE00000100140000C0140E526000870B54FF4D9
:101EF00000447D4D41F288307C4E2C61B0476C61CE
:101F00004FF6E850B0470A24013C4FF6FF70A4B2E8
:101F1000B047002CF8D14FF400432B610A25013D56
:101F20004FF6FF70ADB2B047002DF8D141F28830C6
:101F30006F4CB04747F6F001E520A0474FF48071A1
:101F40000120A0474FF4E0610220A0473821032080
:101F5000A04729460420A04740F207210820A047B7
:101F600029460920A04729460A20A04729460C20D7
:101F7000A04729460D20A04729460F20A047294603
:101F80001020A04707211120A04729461220A04772
:101F900029461320A04701210720A0472021072020
:101FA000A0474CF25030B0474CF25030B0474CF2A2
:101FB0005030B04741F290211020A04740F221213B
:101FC0001120A0474CF25030B0474CF25030B0478F
:101FD0004CF25030B04781211220A0474CF25030D3
:101FE000B0474CF25030B0474CF25030B0474FF44D
:101FF000A8511320A0470C212920A0470D212B20F8
:10200000A0474CF25030B0474CF25030B0474CF241
:102010005030B04729462020A0474FF4807121203E
:10202000A04740F203313020A04706213120A047CD
:1020300001213220A0474FF401713520A04704212F
:102040003620A04740F207413720A04729463820D4
:10205000A04740F204413920A04740F202413C2011
:10206000A04704213D20A04729465020A047EF214A
:102070005120A04729465220A04740F23F1153204B
:10208000A0474FF41C516020A04701216120A047C8
:1020900029466A20A04729468020A047294681205A
:1020A000A04729468220A04729468320A0472946E9
:1020B0008420A04729468520A04710219020A047D2
:1020C0004FF4C0619220A04740F233110720A0478F
:1020D0004CF25030B0474CF25030B0473346BDE878
:1020E00070404CF25030184700080140E5260008C7
:1020F0006D1E0008F8B54FF400530E4C4FF4004528
:1021000063614FF480430C4E02200C4F6361B8476B
:10211000F368022003F47F43F36065612561B847EB
:10212000F36803F47F4343F02203F36065612561A4
:10213000F8BD00BF00100140000C0140E52600087A
:102140004FF40052014B1A61704700BF001001406C
:102150002DE9F0414FF40045564C4FF6E850564FEC
:102160002561B84765614FF6E850B84725610A24F4
:102170004FF6FF70013CB84714F0FF04F8D111206E
:102180004E4DA8470A264FF6FF70013EB84716F09D
:10219000FF06F8D136204A4CA847A820A0473A208D
:1021A000A8475520A047E420A8472720A04730464D
:1021B000A0471020A0471320A847B020A8473046CA
:1021C000A047E020A047B220A8470C20A047A04786
:1021D0003046A0473320A047A047B720A847352066
:1021E000A047BB20A8472B20A047C020A8472C20F1
:1021F000A047C220A8470120A047C320A84711201C
:10220000A047C420A8472020A047C620A8470F20E9
:10221000A047D020A847A420A047A120A047E020A5
:10222000A847D020A0473046A0470520A0470E2051
:10223000A0471520A0470D20A0473720A0474320E6
:10224000A0474720A0470920A0471520A0471220FB
:10225000A0471620A0471920A047E120A847D0207A
:10226000A0473046A0470520A0470D20A0470C20DE
:10227000A0470620A0472D20A0474420A04740208B
:10228000A0470E20A0471C20A0471820A0471620DA
:10229000A0471920A0470A20A8471820A0472920B6
:1022A000A8474CF25030B8473B46BDE8F0414CF2ED
:1022B0005030184700080140E5260008F11B0008CF
:1022C000251C00082DE9F8430420184B98474FF4CB
:1022D0000053DFF85C80174CC8F814304FF480438B
:1022E000C8F810304FF044336420134E2360B047D9
:1022F000042500274FF480790A20C4F81490B047D1
:10230000A368013DDBB215F0FF05C4F8109043EA65
:102310000727F1D14FF0333323604FF4005327F0F8
:102320007F40C8F81030BDE8F88300BFF11B0008FB
:1023300000100140000C0140E52600087047000035
:1023400073B5264B00214FF000609847002401260A
:102350001D23234D01A88DF804308DF805408DF81C
:1023600006408DF80760A8471E2301A88DF80430A9
:102370008DF805408DF806408DF80760A8471223B8
:1023800001A88DF804308DF805408DF806408DF8D1
:102390000760A8470B2301A88DF804308DF805408D
:1023A0008DF806408DF80760A847252301A88DF811
:1023B00004308DF805408DF806408DF80760A84779
:1023C000262301A88DF804308DF805408DF80640CD
:1023D0008DF80760A84702B070BD00BF710A010800
:1023E000E5090108E5230E4810B40370C5230C214C
:1023F000C3700C4BA0F801101A7802719A794271DF
:102400000D2282710122C2715C780472DB798272C2
:1024100043720023C372044A044B10BC184700BF28
:10242000560D00206C12002000440040B18C0008C2
:102430002DE9F041104F00240825B8460A20B8477E
:102440004FF400530D4E0A203361B847B36864005F
:102450005B044FF00A00E4B248BF44F00104C047F7
:102460004FF400530A207361013DC04715F0FF058A
:10247000E4D12046BDE8F081E5260008000C0140CB
:10248000F8B54FF40057094E094C0A20A0470A201E
:102490003761A0470A20B568A0470A207761A047A6
:1024A00085F48040C0F38030F8BD00BF000C0140CF
:1024B000E5260008044B5A6822F070625A605A6898
:1024C00042F080625A607047000C0140044B5A6829
:1024D00022F070625A605A6842F040725A60704747
:1024E000000C01402DE9F0414FF400564FF48047B5
:1024F0000A4C0B4B98470B4D27610A206661A84791
:102500000A202661A8470A206761A84766610A2059
:10251000A847054BBDE8F041184700BF000C01403B
:10252000CD240008E5260008B52400082DE9F04177
:102530004FF400564FF480470A4C0B4B98470B4D15
:1025400067610A206661A8470A202661A8470A2019
:102550002761A84766610A20A847054BBDE8F041FE
:10256000184700BF000C0140CD240008E5260008F4
:10257000B52400082DE9F0410F4DA8474FF4005352
:1025800009240E4F0E4E3B614FF400580A20B0470D
:102590000A20C7F81080B0470A20B047013C0A2043
:1025A000C7F81480B04714F0FF04EDD1A847054BDD
:1025B000BDE8F041184700BFE5240008000C0140C9
:1025C000E52600082D2500082DE9F843DFF84C80AA
:1025D000134B044698470025C1464FF480434FF4FF
:1025E0000057104E14F0800F14BF336173610A203E
:1025F000C0470A203761C0470A20C047072D7761CE
:1026000001D1094B984701350A20EDB2C847640053
:10261000082DE4B2E1D1BDE8F88300BFE52600084B
:10262000CD240008000C0140B524000870B50B4B08
:1026300098474FF480434FF40056094D094C6B61A5
:102640000A20A0470A202E61A0470A20A0476E61F9
:102650000A20A047044BBDE870401847CD2400086D
:10266000000C0140E5260008B524000870B50B4BAE
:1026700098474FF480434FF40056094D094C2B61A5
:102680000A20A0470A202E61A0470A20A0476E61B9
:102690000A20A047044BBDE870401847CD2400082D
:1026A000000C0140E5260008B5240008024AD36862
:1026B00083F48053D3607047000C014008B5014B90
:1026C000984700BF11180008044B05490022D96043
:1026D00041F270711A6019829A827047C00B002013
:1026E0000A00050082B0ADF80600BDF806309BB2C6
:1026F0000BB902B07047BDF80630013B9BB2ADF894
:102700000630F2E7024608B5044902B908BD41F2B5
:102710008830013A884792B2F7E700BFE526000803
:10272000531C00225B0003F0FE0310B5CA54013BAA
:10273000DBB2044608461944012B04D178234370C8
:102740003023037010BD04F00F02092A94BF42F039
:1027500030023732013B01F801292409DBB2EBE7F3
:102760002DE9F74F884605462B7801309342FAD081
:1027700000244FF0000926461E4FDFF87CA0DFF84A
:102780007CB0013D15F8010F40B91D4D1D4E44BBF5
:102790000120C8F8009003B0BDE8F08F2E281DD0AE
:1027A000A0F13002092A23D8174B00F00F009847F8
:1027B000B847CDE900014846B847DFF850C00022CD
:1027C000134BE04702460B46DDE90001D047D847EE
:1027D0008146002ED6D00134E4B2D3E7002401268E
:1027E000D0E748463146A847013C8146E4B2CEE7EF
:1027F0000020D0E781060008C5030008210D00086D
:1028000045110008000020412D0F00083107000885
:1028100000002440F7B505460F4F2E782C46304671
:102820000135B8470028F8D12D2E0ABF2C460025C7
:1028300001252378094A2B2B08BF01342046084B79
:10284000D2B201A998471DB1019B03F10043019346
:10285000019803B0F0BD00BFBD150108C3570108C2
:102860006127000870B5037804463BB10546044E65
:102870002C4620780135B0470028F9D1204670BD9C
:10288000BD150108F8B5037804464BB10546054F60
:102890002E4630780135B8470028F9D00023337030
:1028A0002046F8BDBD150108034602B9704723F85C
:1028B000021B013AF9E700002DE9F0470646884679
:1028C00015461F46DFF844902A20114CC847300AAD
:1028D000A047F0B2A04708F1FF30304486B2C0F301
:1028E0000720A047F0B2A0472B20C847280AA047DE
:1028F000E8B2A047781E284485B2C0F30720A0475D
:102900002346E8B2BDE8F047184700BFF11B0008B6
:10291000251C0008F0B54FF480474FF40055334CA8
:10292000334E65616761F5685FFA80FE05F47F45A7
:1029300045F02A05F5604FF4004565612561276182
:10294000D6F80CC001390CF47F4C4CEA102CC6F8B8
:102950000CC065612561D6F80CC008440CF47F4CAE
:102960004CEA0E0CC6F80CC065612561F168C0F335
:10297000072C01F47F4141EA0C01F160656125619A
:10298000F168C0B201F47F410843F06065612561E0
:102990006761F168D0B201F47F4141F02B01F16031
:1029A000656125612761F168013B01F47F4141EADE
:1029B0001221F16065612561F1681A4401F47F41DB
:1029C0000143F16065612561F368C2F3072103F4F7
:1029D0007F430B43F36065612561F368D2B203F472
:1029E0007F431A43F26065612561F0BD001001402C
:1029F000000C01402DE9F04714460D46994687B278
:102A00001F4E39465220BDF82080B047611E394420
:102A1000ADB2532089B2B04729465020B04709F1E2
:102A2000FF312944512089B2B04729462020B047C0
:102A300039462120B047134B98474FF4804109FB9A
:102A400004F34FF40044104A10484FEA182511616E
:102A50005FFA88F81BB9BDE8F0470D4B1847C1680D
:102A6000013B01F47F412943C16054611461C16895
:102A700001F47F4141EA0801C16054611461E9E752
:102A80006D1E0008F520000800100140000C0140F8
:102A9000412100082DE9F14F80460D46DDF82CA0BC
:102AA0001E46BAF804409AF80B300734D21AE410E4
:102AB00054439AF80620DFF8DCB001465220544314
:102AC000DAF80090BDF82870D847BAF8043008F159
:102AD000FF311944532089B2D84729465020D8479E
:102AE0009AF806106B1E1944512089B2D847414606
:102AF0002120D84729462020D847274B98474FF414
:102B00008042264BBAF804E01A619AF806100EF1DA
:102B10000702D210013C4A434C4471464FF400492D
:102B2000DFF87C8092B222B91E4B01B0BDE8F04FB5
:102B30001847A1F1080014F8015F80B215F0800F6A
:102B400014BFB246BA46D8F80CC001390CF47F4C19
:102B50004CEA1A2CC8F80CC0C3F81490C3F81090B3
:102B6000D8F80CC05FFA8AFA0CF47F4C4CEA0A0CD5
:102B700089B2C8F80CC0C3F81490C3F8109039B1EA
:102B80006D008842EDB2D9D1013A014692B2CAE74E
:102B90007046F9E76D1E0008F5200008001001409E
:102BA000000C0140412100082DE9F04114469846EF
:102BB0008AB2174DA1B29BB280B2BDF81870A84777
:102BC0004FF480424FF400534FF400451149124E28
:102BD0004B614A61F06808FB04F400F47F4040F068
:102BE0002C03F3604D610D610A61FAB2024340EAC1
:102BF000172024B94FF400530B61BDE8F081F06059
:102C0000013C4D610D61F2604D610D61F1E700BF66
:102C10001529000800100140000C014070B4074D58
:102C2000BDF80C402E8849F24135AE4203940CBFEA
:102C3000034C044CA44670BC604700BFBC0B002092
:102C4000A92B0008F529000813B50021F0234FF443
:102C5000A0720846024C0091A04702B010BD00BF10
:102C60001D2C00082DE9F3471C460E4605469246EA
:102C7000BDF828901FFA82F808F1FF32013C124F8C
:102C80000123CDF8009012B2A4B2B847A119524660
:102C9000284624B20123CDF8009009B2B847234654
:102CA000314628460122CDF80090B847234601223C
:102CB0003146BC46013D454428B2CDF8289002B0CB
:102CC000BDE8F047604700BF1D2C00082DE9F84F14
:102CD0000D46DDF82C801E46B8F8041098F80B401D
:102CE00098F80630141BCA1DD21054432A462B4DA7
:102CF0005C43D8F80090BDF82870A8474FF4005303
:102D000027494FF400454B614FF48043B8F804A0C5
:102D1000DFF890E050464B61DEF80C20013C02F4F5
:102D20007F4C4CF02C02CEF80C204D610D610B61F4
:102D300098F806300AF10702D2105A434C4492B276
:102D400022B94FF400530B61BDE8F88FA0F10808D9
:102D500014F8019F1FFA88F819F0800F14BF33464A
:102D60003B4601384CEA132BDBB24CEA030380B23A
:102D7000CEF80CB04D610D61CEF80C304D610D6197
:102D800048B14FEA490980455FFA89F9E4D1013A2F
:102D9000404692B2D4E7D046F9E700BFB928000810
:102DA00000100140000C01402DE9F34798461E4BEE
:102DB00016461A8849F241339A4204460D46BDF838
:102DC00028900B9F07D1DFF864A016F8012BCAB931
:102DD00002B0BDE8F087DFF858A016F8012B002AF2
:102DE000F6D0294620464346CDE90097D04738899A
:102DF000204484B2B4F5A07F21BFB97A00244919D8
:102E00008DB2EAE7294620464346CDE90097D047F0
:102E10003889204484B2B4F5A07F21BFB97A002458
:102E200049198DB2D1E700BFBC0B0020CD2C0008A2
:102E3000952A0008F0B4084EBDF81040378849F2D2
:102E40004136059DB74215BFCDE904450494034CB6
:102E5000034CA446F0BC6047BC0B0020952A000838
:102E6000CD2C000830B4BDF80840BDF80C500294D9
:102E70001DB9034CA44630BC6047024CFAE700BFC2
:102E8000652C00081D2C00082DE9F74FBDF8308097
:102E9000BDF834400746894615469B46CDF800806C
:102EA000002C3DD1204CA047204EDFF884A0BFB2BB
:102EB000BAF800301FFA89F42146DFF878903846D6
:102EC0000093002243460196C8473D44B088BAF8B3
:102ED0000030ADB2281A21460093012243460196E4
:102EE00080B2C8475C44B179BAF80030A4B2611A24
:102EF0003846009302224346019689B2C847BAF881
:102F00000030B179B08803220C93CC464346611A55
:102F1000281A89B280B20D9603B0BDE8F04F604721
:102F2000054CA047054EC0E7652C00082C0000208A
:102F3000000C0020352E00081D2C00089C000020ED
:102F40002DE9F04F00268346344687B0109FCDE927
:102F50000313B7F804A0B9790AF1070A4FEAEA03A4
:102F600097F80BA003FB01F5A2EB0A0A03FB0AFA90
:102F700001FB0AFA3B680AF1FF3AADB29A4415B96F
:102F800007B0BDE8F08F039B04F10808F1181AF8A8
:102F9000019F1FFA88F809B219F0800F0BD0049B2B
:102FA0000BEB040000930123DFF834C01A4600B293
:102FB0000591E0470599BB880134A4B2A34207D12B
:102FC0004FF000080136B6B2013D4446ADB2D6E737
:102FD0004FEA4909A0455FFA89F9DDD1F4E700BF5E
:102FE0001D2C000870B580B21E46154D93B21446D4
:102FF0008AB20121A8474FF400531249124D4B6188
:103000004FF480434B61EA6802F47F4242F02C00A7
:10301000E8604FF40040486108610B61F3B213436C
:1030200042EA16221CB94FF400530B6170BD013CFB
:10303000EA6024B248610861EB6048610861F1E729
:103040001529000800100140000C0140054B064AFC
:1030500003F1200153F8040B8B4242F8040BF9D121
:10306000704700BFDA3E01086C12002013B5402201
:1030700000210A4B0A48984700210A4B052001937A
:10308000094A40F2FF73094C0091A047084AD38BCC
:1030900043F4C073D38302B010BD00BF35160108DE
:1030A000EA44002020000020213B0108A92D00084F
:1030B0002C47002070B51F4C1F4D94F900100020C4
:1030C000A84794F906100120A847B4F902101B4D37
:1030D0000020A847B4F908100120A84794F901106E
:1030E000174D0020A84794F907100120A84794F92C
:1030F0001000144B984794F91100134B984794F91A
:103100001200124B984794F91300114B9847B4F9E9
:103110001400104B984794F917000F4B984794F9F7
:1031200016000E4B9847B4F90C000D4BBDE87040EB
:10313000184700BF6C12002059A000088DA000089D
:1031400075A00008B1A00008F5A0000809A10008BA
:1031500061A1000819A100084DA1000839A10008CB
:1031600075A100080346087800B97047984201D15C
:10317000487870470231F6E70B4B002059880B4B1B
:1031800010B55B88C91A09B2094B9847E023094872
:10319000042103703823C370074A084BA0F80110BC
:1031A000BDE81040184700BF6C1200202C470020DB
:1031B000B9A20008560D002000440040B18C000860
:1031C000044B01201989044B5B88C91A09B2034BCF
:1031D000184700BF6C1200202C470020B9A200083D
:1031E000034BD889034B5B88184400B2024B184745
:1031F0006C1200202C470020D9A20008044B054A7D
:103200005B88908AA0EB830000B2034B184700BF95
:103210002C4700206C12002051A300082DE9F04F2C
:10322000464B87B093F9102093F9006093F906504C
:1032300093F9113000920193414B9847DFF80491C4
:103240001120C847404F0020B84700213F4C084696
:10325000DFF8FC80A04700210120A047CDE90397BB
:103260000024C146C34601273A4B03EB8403029373
:10327000394B79B220469847384B98474FF07E52E9
:103280004FF00A0A029B1A60354A4EF660209047BA
:103290000AF1FF331FFA83FA314ABAF1000FF4D171
:1032A000304B9847DFF8C0A03049BAF802200592A9
:1032B0008847059A2D4912F0010FF6D02C4A2D4867
:1032C00090472D4A013732F814200E2FA2F50062E4
:1032D0002BF8022BCCD108F120080CB90124C1E74E
:1032E0002649039BCA8B009842F4C072CA83984750
:1032F000194B314600201F46984729462046B847BB
:10330000049B01989847154A90471D4A013E52F880
:103310002610CAF8A01005F10C0152F821200F3533
:10332000CAF8A42039F81620AAF81C2039F815206C
:10333000AAF81E2007B0BDE8F08F00BF6C12002075
:10334000C1A10008B1A00008F5A00008D1A10008A3
:10335000EA4400202C13002059A00008E5230008AF
:10336000E52600081D9900088C120020B5120108FE
:103370007D9C0008C82C0020A41200202C470020AF
:103380006001002010B5064B9847BDE81040A0F53D
:10339000967000EBD070034B40F34F00184700BF0E
:1033A00095A10008D9A2000870B50E4B93F91340FF
:1033B000022C16D00C4D05EB4413996A586A0B4B3E
:1033C000984728344FF07C51094B984755F8241002
:1033D000084B9847084B9847BDE87040074B00B230
:1033E000184770BD6C1200208C120020CD0D000813
:1033F000DD0F0008451100086913000851A30008FB
:10340000024A938B43F01003938370472C470020AC
:103410000122034B5A839A8B42F010029A83704721
:103420002C47002070B51A4C1A4B9847E38B43F099
:103430000103E383184B9847A38B184A43F0020318
:10344000A383938A164943F00103938215480C2203
:10345000154B984720B1242208211448144B984753
:10346000144B154C1A681379D28843EA0223E28B75
:103470009BB29A420BD0114B114D9847A17F114836
:10348000A8472B46E17F1048BDE87040184770BD43
:103490002C4700204D300008E5230008C00B002019
:1034A000E8F7FF1F940C00203118010810020020DB
:1034B00035160108B80B0020840C0020CD1001083F
:1034C0005111010804F8FF1F06F8FF1F2DE9F04114
:1034D00004460D464FF40047074EDFF820800CB934
:1034E000BDE8F08128463761C047013C2846776136
:1034F000C047A4B2F3E700BF000C0140E526000876
:103500000A490B4AB1F90230002BB7BF50899088A5
:10351000C3F30E034340AABF434053819380CB695A
:1035200043F4803343F00203CB6170472C47002003
:103530006C120020000000002DE9F04F4FF0000851
:1035400087B0009040F6FF79C246404644460B469D
:10355000A349B1F90C60864200F3E780CDE904236A
:10356000A8F50060009B9F4F00B203F1010BB84724
:103570009D4D009B05EB4B1BCBF80400A9F50060AB
:1035800005EB431594FBF6F4B847A862A4F5006078
:10359000B847E862A8EB0900B84728633046B84747
:1035A00080465046B8474146904FB84790498847B3
:1035B000904FB847904FB8474FF0000A059B68639B
:1035C0001888A5B224B2041BE043D44654465146A1
:1035D000EF1C049A033D3FB22DB2C00F8E4200F3A0
:1035E000B3800021804F009B012C07EB43139963AC
:1035F000D96319644FF00001009B03F14C0327F8D5
:1036000013104FF0040107EB4303998003DCBCF176
:10361000010F40F38780734D002800F0B680039BB4
:10362000013C02922046A3EB0209A8478346484684
:10363000A84759466D4B9847029A039B0190B018D2
:10364000C01AA8470199694B98476C4B01465846E8
:103650009847634B654E93F91020694B414653F8E8
:1036600022200192B047019A664B11460292984778
:10367000009A014602F11E0B203247F82B000192FE
:103680004FF07E50B047019A47F822005046A847B5
:10369000009A8046204602F1240AA8470146404687
:1036A000B047029A1146B04747F82A004846A84753
:1036B00001464046B047534B53499847009BDFF8BB
:1036C0004481223347F82300009BDFF81C914F4DC3
:1036D000029003F14C0459F82B70294638464C4BA4
:1036E000984700286CD1009B3F4C03F14C05DFF854
:1036F00000B1DFF8189104EB4505019B54F82360F5
:103700003046D84734A3D3E90023DFF808C1E047A7
:10371000002840F08180009B04EB4314029BA763C8
:10372000E663236407B0BDE8F08F33F91010013071
:103730008845B8BF88468945A8BF89460C44A1F58D
:10374000006101FB01AA06E733F911E088B1754574
:103750000DDB01980CF1010CBCF1010F08BF08460C
:1037600001907CB103980291081A82440020013133
:1037700034E77745FBDC0134012C08BF0A46012001
:103780000391F4E720460291F1E7DDE9011391424C
:10379000C8BF8A1A0CF1FF30A3EB0109C8BFAAEB1E
:1037A000020AA84783464846A84759460F4B984700
:1037B00003900198029B3044C01AA847039942E73E
:1037C00029463846B04739F8143049F82B00013300
:1037D00029F814307FE700BF7B14AE47E17A843FBD
:1037E0006C120020350F00088C12002045110008D3
:1037F00081060008051A0108210D0008CD0D0008FA
:10380000403D0108DD0F00080000C84200007A4476
:1038100041130008290C000849463046C047019B67
:10382000494644F8230054F82A00C047AB8844F8BE
:103830002A000133AB8060E701490248024B184778
:1038400000380140313B0108C11900082C20014912
:10385000014B184700380140991900080149024BF3
:10386000184700BF00380140C1190008034642F262
:103870001072B3FBF2F2084642F030010170C2EB65
:10388000C201C1EB4111C2EB011203EB02134FF471
:103890007A729BB2B3FBF2F242F030014170C2EB9C
:1038A000821102EB811102EB410203EBC20364229D
:1038B0009BB2B3FBF2F242F03001D2B28170C2EBA4
:1038C000422102EB8101C2EBC10203EB82030A2217
:1038D0009BB2B3FBF2F242F03001D2B2C170C2EB44
:1038E0004231C2EB810203EB420343F03003037128
:1038F00000234371704730B501240A25C1F1090343
:10390000DBB243B9B0FBF4F343F03005DBB204FBA8
:103910001300555430BD013B6C43DBB2F1E70000AE
:1039200038B50A460024054DE1B20134A8470A2CF7
:10393000FAD100231046937238BD00BFF738000853
:103940002DE9F04F00211F4687B03F4B0646144635
:103950009847054628B1314600203C4B9847012541
:1039600006464FF000083A48DFF8E890DFF8E8A094
:103970005FFA88F39C4231D80146384B304698476D
:10398000DFF8DC808246C047364E0DF101018346E8
:10399000B146B0476A4600235178DEB2302907D1DC
:1039A00001330A2B02F10102F6D109268DF80A1023
:1039B00006AB1E44BDB12D2306F8183CACB98DF8FA
:1039C0000B400023DAB2324412F8182CFA540133B7
:1039D000002AF7D1384607B0BDE8F08F5146C847F6
:1039E00008F10108C4E72023E6E72E2358468DF8A6
:1039F0000B301D4B9847154B0146504698472546BE
:103A00000346DFF868A0DFF850B018465946D047A3
:103A1000013D15F0FF050346F7D1C04703A9C8478C
:103A200003ABC4F10A01EAB2A24207D30C3406ABDD
:103A3000E4B21C44002304F8183CC2E75A5C013588
:103A400003F8012BEFE700BF19130008C90D0008A8
:103A5000E4380E3F4511000800002041CD0D00085C
:103A6000B5130008213900082D0F0008DD0F0008EC
:103A70002DE9F041DFF890800C461546234EC047F3
:103A80001FA3D3E90023B047214B013C064653F85E
:103A900024000F46C0471F4C02460B4630463946AD
:103AA000A0471D4B98471D4B04461B889B0403D51C
:103AB00001461B4B9847044620461A491A4B984723
:103AC00020B9204619491A4B9847A0B120461949F8
:103AD000194B98470826044603222B4611462046D8
:103AE000164CA047164B284653F82610154B9847FE
:103AF0002846BDE8F0810926EEE700BFAFF300805D
:103B00000000000000C8E93F8106000831070008F6
:103B1000D83B010885090008210D00088C120020FF
:103B2000CD0D00080000C842551300080000C8C2AF
:103B30001913000800007A444511000841390008B3
:103B4000E0000020D91601082DE9F041184B0C4681
:103B50001546DFF860809847C04713A3D3E90023D8
:103B6000154EB047154B013C064653F824000F464E
:103B7000C047134C02460B4630463946A047114B0E
:103B80009847114B04461B889B0403D501460F4BF5
:103B9000984704462B460322062120460C4CA0479A
:103BA0002846BDE8F08100BF6666666666664A3FE5
:103BB000350F00088106000831070008D83B0108CE
:103BC00085090008210D00088C120020CD0D000889
:103BD000413900080122114B10B59A834FF4FA6263
:103BE0000F4B104C5A829A8A0F4922F001020F485B
:103BF0009A82A0470C490E48A0470B490D48A047A0
:103C000009490D48A0470D4B0D4A03F1140153F823
:103C1000040B8B4242F8040BF9D110BD2C47002055
:103C2000C00B0020C119000800380140FD3C01080C
:103C3000663C0108283E0108123C0108343B01089B
:103C4000920D00200622084B4FF4FA719A8100224F
:103C50005A83064A5182918A21F0010191829A8BFE
:103C600042F001029A8370472C470020C00B0020CD
:103C70004FF44872054B5A829A8A22F001029A82C6
:103C8000034A938B43F0010393837047C00B0020DA
:103C90002C470020064B5A899A809A8B42F00302E7
:103CA0009A83044A938A43F001039382704700BFCA
:103CB0002C470020C00B0020024AD38B43F0100396
:103CC000D38370472C470020034A9389013303F0C4
:103CD00003039381704700BF2C470020044B054924
:103CE0009A8958888B5C034403F00F038B54704708
:103CF0002C470020BC4600200B22024B9A80002259
:103D00009A8170472C470020094B0A489A89998864
:103D10000132415C92B291424FF0000188BF9A811A
:103D20009A8B98BF998142F0C202D9819A837047D9
:103D30002C470020283C01084FF6FF71094B9A8957
:103D4000013A92B28A4201BF9A8807498A5C02F11D
:103D5000FF329A810022DA819A8B42F0C2029A8362
:103D6000704700BF2C470020283C01080D4B998963
:103D7000B3F9022091420BD001299A8101D8012A7E
:103D800001DD0022DA819A8B42F0C2029A837047E9
:103D9000DA8905480132415C92B29142DA81F0D968
:103DA000F1E700BF2C470020413C01080C22054BE5
:103DB000DA811A82DA881A819A8B42F003029A8396
:103DC000704700BF2C47002010B50E4C0E4BA28848
:103DD00053F822000D4B9847A38823F002039BB2AF
:103DE000012B18BF00F1FF30E38908BF023880B211
:103DF00083423EBF23820133E381A38B43F002035E
:103E0000A38310BD2C470020DC03002061BA00080A
:103E1000054BDA8912B11A82013ADA819A8B42F0A3
:103E200002029A83704700BF2C470020044B0021F8
:103E3000DA89044B53F822301889034B184700BF26
:103E40002C4700209804002001B00008002110B584
:103E5000064C7C202389E160A380054B9847E369E9
:103E600043F4803343F0C703E36110BD2C470020C7
:103E700001B0000813B5094B022101934FF47843B8
:103E8000AA20074A0093074C4FF6FF73A047064B42
:103E90009847064B02B0BDE81040184720000020AC
:103EA000665A0108A92D00081D3200084D3E000881
:103EB00010B5034B9847BDE81040024B184700BFB0
:103EC000253400084D3E000800230A4A0A49D36001
:103ED0000A4B5888488118898881D8890881198BAC
:103EE00021F001011983D36943F4803343F00703C0
:103EF000D36170472C4700208C1200206C120020E8
:103F000002230B4A0B4993800023D3600A4B588845
:103F1000488118898881D8890881198B41F001016D
:103F20001983D36943F4803343F00703D3617047A7
:103F30002C4700208C1200206C120020012208B5B2
:103F40000A4B9A800A4B0B4A1A600B4B0B4A1A60B9
:103F50000B4B0C4A1A600C4A0C4B1A600C4B9847DE
:103F60000C4A138823F40063138008BD2C470020FB
:103F7000D0470020BA5D0108AC470020C0470020B0
:103F8000B0470020AA5D0108B25D0108B4470020D7
:103F9000C93E00088C1200200022044BDA811A82EC
:103FA0009A8B42F003029A83704700BF2C4700208F
:103FB000124810B4C389112B18D809220624B3FB68
:103FC000F2F20F4904FB021102EBC2029B1A01221A
:103FD0009BB202FA03F38A8810BC53408B80C369FA
:103FE00043F4803343F00203C3617047054A002164
:103FF00052F8233010BC1889034B18472C47002077
:104000006C1200204804002001B000080022044B7C
:10401000DA601A829A8B42F003029A83704700BFDB
:104020002C470020034B5A889A819A8B42F0020257
:104030009A8370472C47002010B5094CE389032B65
:1040400005D8A381A38B43F00203A38310BD054AC7
:10405000002152F823301889034B9847F2E700BF3C
:104060002C4700207C05002001B0000810B411246A
:104070000D4B1C7002F10E04A3F801408424C3F818
:1040800006105A81DC7003F10E010244904206D101
:10409000B3F80110054A0448054B10BC184710F846
:1040A000014B01F8014BF1E7E03C002000440040E7
:1040B000B18C00082DE9F047214D0446AB7B214827
:1040C00003F0FB03AB73E0230421037036230026C7
:1040D000C3701D4A1D4BA0F80110984704F500431A
:1040E0000C33DFF86C901F03AB7B5B0725D5AB7BF4
:1040F000184803F0FB03F11930444FF48062DFF8F5
:104100005880AB7306F58066C047144B9847B6F5E8
:10411000805FE9D10725124E013D4FF6DC70ADB24C
:10412000B047002DF8D104F50021BC314346BDE86D
:10413000F04720220B48090218472846C847D3E712
:10414000AC0F0020560D002000440040B18C000848
:10415000018C0008C82C00206D400008B512010831
:10416000E52600086C12002013B50F4B98470F4B43
:10417000022101934FF478430D4A0093F0204FF64B
:10418000FF730C4CA0470C4C0C4BA08998470023A4
:10419000E3602389A380A38B43F0C703A383084B69
:1041A00002B0BDE81040184745A0000820000020DC
:1041B000B85B0108A92D00082C470020B540000875
:1041C0001D99000870B40C46102105460748832647
:1041D00001700E2102714371C670C0F8065044810F
:1041E000034A044BA0F8011070BC1847560D00207C
:1041F00000440040B18C00082DE9F84F2E4C0546D4
:10420000A37B00F5002003F0F7032C4EBC30A37312
:104210000122002320212A4F0002DFF8A880DFF8C6
:10422000A890B847E663A37B1A073AD5A37B03F0AF
:10423000F703A3734FF2A633F28B9A4239D11F4B87
:10424000224A03F1200153F8040B8B4242F8040B7D
:10425000F9D105F5004000250C30DFF87480DFF857
:1042600064908601A37BA81903F0F703A37308EBFE
:104270008513E36301224021EBB28001B847DFF8E8
:1042800038B0DFF844A0A37B1B070ED5B4F8443048
:104290009BB2AB42E6D10135ADB23F2DE2D9012050
:1042A00008E02046C047C847BDE75846C847D04742
:1042B000E9E70020BDE8F88FAC0F0020560D002084
:1042C000C5410008018C0008B51201086C120020DD
:1042D000C82C0020024A938B43F00303938370475A
:1042E0002C4700202DE9F04F9E4B85B09E4DDFF806
:1042F0007CB298479E4C9F4ED8474FF0060A9E4886
:10430000A047B04795F900009C4F013800EB8000B2
:104310003844A047B04795F90600DFF864920138A9
:1043200000EB80003844A047D8479648A047964FF6
:10433000B04795F9010007EB8000A047B04795F919
:10434000070007EB8000A047D8479048A047B04738
:10435000B5F9020095F900704000C84739468C4A0B
:104360008C4FB847A047B047B5F9080095F90680CB
:104370004000C8474146864AB847A047D8478648C4
:10438000A047B047854A95F91000DFF814820AFB70
:104390000020A047D8478348A047B0477C49E88918
:1043A000C047A047D8478048A047B04795F91100BB
:1043B0007E4A00EB80001044A047D8477C48A047C5
:1043C000B0477C4A95F9120002EBC000A047D847DD
:1043D0007948A047B04795F91300784A00EB4000B0
:1043E0001044A047D8477648A047B04795F9132016
:1043F0005C4B022ACDE901B300F0CE810AFB02F248
:1044000015F902A0B5F91400C8475146604AB847EB
:10441000A047019B9847029B98476A48A047B0472E
:104420005B49A889C047A047DFF89C81019B98475A
:104430006648A047B047D8F82400654B9847AB883A
:104440000022DB0554BF634B634B95F900B0DFF8E6
:104450008CA1D047DFF88891C84759464C4AB847E5
:10446000A047B047D8F84400594B98476B890022C1
:10447000DB0554BF574B584B95F906B0D047C8479A
:104480005946434AB847A047019B98475548A0471B
:10449000B047D8F828004E4B9847AB880022DB0580
:1044A00054BF4C4B4C4B95F900B0DFF830A1D047CE
:1044B000DFF82C91C8475946354AB847A047B0475E
:1044C000D8F84800424B98476B890022DB0554BF5F
:1044D000404B414B95F906B0D047C84759462C4A46
:1044E000B847A047019B98473F48A047B047D8F836
:1044F0002C00374B9847AB880022DB0554BF354B67
:10450000354B95F900B0DFF8D4A0D047DFF8D09054
:10451000C84759461E4AB847A047B047D8F84C008C
:104520002B4B98476B890022DB0554BF294B2A4B44
:1045300095F906B0D047C8475946154AB847A0472D
:10454000019B98472948A047B047D8F83000204B36
:104550009847AB880022DB0554BF1E4B1E4B95F9D4
:1045600000B045E0B51201086C120020393800088F
:104570005D3800084D380008E63C0108035D01087D
:10458000350F00087E3C0108CE3E0108E13C0108E1
:10459000B60C0020713A0008A73C01082843010826
:1045A0006D380008853C0108CA3C0108CE4301086B
:1045B000B03C0108183E0108D63C0108A45C010883
:1045C000BD3C01088A3C01088C120020565C0108A1
:1045D000810600080000F03F000024403107000879
:1045E000210D00085B5C0108445C01086D5C01085A
:1045F000DFF830A2D047DFF83092C84759468B4ADF
:10460000B847A047B047D8F85000894B98476B8906
:104610000022DB0554BF874B874B95F906B0D04786
:10462000C8475946814AB847A047019B98478348E5
:10463000A047B047D8F834007D4B9847AB8800229C
:10464000DB0554BF7B4B7C4B95F900A0DFF8D49180
:10465000C847DFF8D4B1D8475146744AB847A04795
:10466000B047D8F85400724B98476B89002213F476
:10467000807F0CBF6F4B704B95F90640C847D847F9
:1046800021466A4A6E4B6F4E9847B047019B984748
:104690006D4C6E48B047A04703226D4FDFF8B4A1C0
:1046A0001146624BB86BD047DFF8AC91B7F8983041
:1046B000DFF8A88159F82310C047B047A04703226C
:1046C0005A4B1146B86DD047B7F89A30DFF890B121
:1046D00059F82310C047B047019B98476148B0473D
:1046E000A0470322514B1146F86BD047B7F89C30D6
:1046F00059F82310C047B047A04703224B4B11463F
:10470000F86DD047B7F89E3059F82310C047B0472E
:10471000019B98475448B047A0470122434B0321CF
:10472000386CD0475149C047B047A04701223F4BA2
:104730000321386ED0474D49C047B047019B984789
:104740004B4B98474B4B002733F810A04A48B047D3
:10475000A0473649494B50469847092295F91030F1
:10476000053393FBF2F3043359F82310B946C047DD
:10477000B047019B98470396414EB6F90C30B8B24A
:10478000984205460ADB039B3E4898473E48039BF8
:1047900005B0BDE8F04F18473C4839E6374B59465D
:1047A0009847DFF8EC803B49C047A0473A4B594651
:1047B000484698473749C047A047384BB18833F837
:1047C000150011F4807FA0F5006314BF0A200120BA
:1047D00058435A46DFF8C8C096F9001000B2E047C7
:1047E0002C49C047A0472D4B718905F2054533F888
:1047F000150011F4807FA0F5006314BF0A2001208A
:1048000058435A46DFF898C096F9061000B2E047C0
:104810002049C047019B9847029B9847D1440137E4
:10482000ABE700BF31070008210D0008B60C0020DF
:10483000810600080000F03F00002440715C010880
:10484000713A00085D3800084D380008F65A010832
:104850008C12002041390008E0000020D916010820
:10486000BC460020B65A0108E95A01085F3B01081E
:10487000C5A00008103D0108125901086D38000854
:104880006C120020663C0108283E0108483B0108E4
:10489000C11900080038014021390008C82C002047
:1048A000493B000837B54FF478440A4B0221AA204F
:1048B000094A019300944FF6FF73084DA847084B2F
:1048C000984700941423C82200216420054CA04777
:1048D00003B030BD20000020973C0108A92D00083E
:1048E000E54200081D2C000810B5194CA388012BC7
:1048F00018D1184B1B881A0512D4A289042A1BD977
:10490000154A1649E38AD160154983F00103E38211
:1049100051F823305B885B0744BF124BD36006E03D
:10492000114B9847A388114AD35C012BE5D8A38B80
:1049300043F0C203A38310BDE3890D4901338A5CB0
:104940009BB29A42E381F2D80023E381EFE700BFF4
:104950002C4700208C12002008010020F65A010884
:10496000C0000020B05A0108E5420008283C0108B8
:10497000413C01082DE9F74F8A4803228A4BDFF8B2
:104980002CA207218068D047DFF8249289498A4CFD
:104990008A4EC847A047B04789480322824B072167
:1049A0008068884DD0478349874FC847A047DFF8C4
:1049B0001C82B047686AC047BB88CDE900A913F4E0
:1049C000807F0CBF824B834B97F900B00022DFF849
:1049D00008A2D047DFF80492C8475946724A804B74
:1049E0009847A047B047A86AC047BB8897F900B06E
:1049F000DB0554BF764B774B0022D047C84759465A
:104A0000694A774B9847A047B047E86AC047BB88D8
:104A100097F900B0DB0554BF6D4B6E4B0022DFF8F9
:104A2000B8A1D047DFF8B491C84759465E4A6C4BED
:104A30009847A047B047286BC047BB8897F900B09C
:104A4000DB0554BF624B634B0022D047C847594631
:104A5000554A634B9847A047B047686BC047BB882F
:104A600097F90080DB0554BF594B5A4B0022DFF801
:104A70006891C847DFF864A1D04741464A4A584B7D
:104A80009847A047B0470322DDF800C01146464BC7
:104A9000A86BE047B5F89820524BDFF8308153F807
:104AA0002210019B9847A047B047686CC0477B899C
:104AB0004F46DFF8149113F4807F0CBF444B454BF5
:104AC00099F906B00022B847D0475946364A444BB8
:104AD0009847A047444B9847A86CC047B9F80A309C
:104AE00099F906B0DB0554BF394B3A4B0022B84761
:104AF000DFF8E8A0D04759462B4A394B9847A047E2
:104B0000B047E86CC047B9F80A30DFF8BC90DB0565
:104B100054BF2F4B2F4B99F906B00022B847D0470E
:104B20005946214A2E4B9847A047B047286DC047A9
:104B3000B9F80A300022DB0554BF254B254B99F903
:104B400006A0B847DFF894B0D8475146164A244B20
:104B50009847A047B047686DC047B9F80A300022AF
:104B6000DB0554BF1A4B1B4B99F90680B847D84751
:104B700041460D4A1A4B9847A047B04703220A4BBB
:104B80001146A86D009EB047B5F89A20154B53F812
:104B90002210019B9847A047134B03B0BDE8F04F8C
:104BA000184700BFDC0C0020B60C0020413900087B
:104BB000D9160108C73B01085D3800084D380008C8
:104BC000100D00208C1200206C12002081060008BD
:104BD0000000F03F0000244031070008210D0008CC
:104BE000713A0008E000002039380008E023064848
:104BF000062103700723C370044BA0F801101B8823
:104C0000034A8380034B1847560D00208C12002066
:104C100000440040B18C00084FF07E532DE9F04F66
:104C20000025DFF8AC92AB4C89B0C9F8A030C9F8C8
:104C3000A430A94B9847A94F4FF6FF7329466E2021
:104C4000A74A01940095B8474FF6FF732946D22032
:104C5000CDE90054A34AB8474FF6FF73A24C009326
:104C60004FF4A072022314212846A04719249F4E16
:104C70000697984B214614343246CDE90053022062
:104C80004FF6FF73069FA4B2B847E12C06F1090660
:104C9000EFD1974CA047974AA0461746964B03F191
:104CA000200153F8040B8B4242F8040BF9D1002188
:104CB000924C0846A04700210120A047904B9847FE
:104CC000B9F800308F4C43F48053A9F800308E4E71
:104CD000A0478E4D4FF4FA60B047A847B9F80230AC
:104CE0000294DC070496079500D4FEE7884B8948B8
:104CF0009847894D00208749A84701208749A84740
:104D0000D9F82C60864B30461E60D9F84C20854D72
:104D1000C3F83220844B984769A3D3E90023A847FE
:104D200069A3D3E90023A847804B98478049814B6A
:104D30000546984700286DD128467F497F4B984704
:104D4000002814BF4FF01F0A4FF4FC6A97F900B017
:104D50007B4C0BF1FF3354F823103046794DA847B4
:104D60005946794A794B98475A4B0246019300239A
:104D700019216E20069E00935346B047684BDFF81A
:104D8000A4A1D3F83260684B304698474CA3D3E9CE
:104D90000023D0474CA3D3E90023D047634B984767
:104DA0006349644B82469847002836D15046624991
:104DB000624B9847002814BF4FF01F0A4FF4FC6A5B
:104DC00097F906B030460BF1FF3354F82310A8478B
:104DD0005E4E59465C4AB04700253E4B02461921BB
:104DE000D2200193069C53460095A047C047B9F8CE
:104DF000003023F49053A9F80030029B98474FF4F9
:104E00007A70049B9847079B9847B9F80230D807F7
:104E100006D4FEE74FF01F0A98E74FF01F0ACFE7CE
:104E20003C48DFF8ECB0D847DFF8ECA02846394919
:104E3000D04701203949D047394CD9F82C30DFF818
:104E4000B4806360D9F84C303F4AC4F8363098F9E2
:104E50000010D9F82C00B0471E4B0246DDF818C0F0
:104E60002D216E20CDE900534DF6FB63E04798F904
:104E70000610354AD4F83600B047164B0246DDF826
:104E800018C02D21D220CDE900534DF6FB63E04739
:104E9000174B9847DFF8B88001212846C047012109
:104EA0000846C047164B984740F6B830164B98470F
:104EB000164B9847B9F80230D9074BD4FEE700BF2C
:104EC0000000000000C8E93FE9263108AC1CF03FB3
:104ED0008C12002020000020492C0008A92D000879
:104EE000623B0108663B01081D2C0008E5570108DC
:104EF000B51201086C120020DC410108D1A10008A4
:104F0000E5230008ED4B0008052700081D9900085F
:104F10007D9C0008C82C002039350008D2340020C0
:104F2000BC4600203107000881060008210D00085A
:104F30000000484355130008000048C31913000837
:104F4000D83B0108DD0F0008B60C0020713A0008BC
:104F500075A00008AA48D8472846A949D04701208B
:104F6000A849D047D9F82C302946A360D9F84C304D
:104F70002846C4F83A30C04729460120C047A24B12
:104F8000984797F90010A14AA068B047DFF88082DF
:104F9000DDF818C002464DF6FB63CDE9005841210B
:104FA0006E20E04797F90610984AD4F83A00B047C7
:104FB0004DF6FB630246CDE900584121D220069D03
:104FC000A847944DA1686068A847D4F83A10824673
:104FD000E060D4F83600A847C4F83E0097F900B066
:104FE00050468D4FB84782A3D3E900238B4DA84785
:104FF0008B4B0BF1FF32CDE9020153F82200B84789
:10500000DFF8208202460B46DDE90201C0477AA3A1
:10501000D3E90023A847844B98478449844B8046B2
:105020009847002840F0668140468249824B984765
:10503000002814BF4FF01F084FF4FC685946504633
:10504000724AB047724B02460193002355216E20ED
:10505000069E00934346B047D4F83E40774B204627
:1050600093F90660B84762A3D3E90023A8476C4BC5
:10507000721E824653F822008B46B847694F02469B
:105080000B4650465946B8475BA3D3E90023A847CF
:10509000654B98476549664B05469847002840F0A0
:1050A0002C8128466349644B9847002814BF1F256C
:1050B0004FF4FC6531462046544A614CA047544B9E
:1050C0004FF0690B019300236FF0010A024655214E
:1050D000D22000932B46069DA8475A4B9847079429
:1050E0000AF1080464B22146574D0020A847214622
:1050F0000120A847444B9847B9F80030BAF1030F94
:105100008CBF23F4007343F40073504AA9F80030B5
:1051100090474FF4FA704E4B98474E4B98474E4B82
:105120009847B9F80230C20740F1E9804B4B344848
:1051300098474B4C00203249A04701203149A047F5
:10514000D9F85030D9F8306002933C4B324C30469D
:1051500093F90050314FA04725A3D3E90023B84766
:105160002F4B6A1ECDE9040153F82200A0472D4CB5
:1051700002460B46DDE90401A0471FA3D3E9002343
:10518000B847294B9847BAF1030F0446284B40F221
:10519000B88034499847002840F0B880324920460A
:1051A000254B9847002814BF1F244FF4FC64294660
:1051B0003046164A079B9847154B02460193002339
:1051C00059466E2000932346069CA0471B4BDFF8F0
:1051D0004880029893F90660104FC04704A3D3E9B2
:1051E0000023B8470E4B721E044653F822003DE0E0
:1051F0000000000000C8E93FE9263108AC1CF03F80
:10520000C82C0020D2340020E5230008B60C002072
:1052100020000020C90D00088106000831070008A1
:10522000D83B010885090008210D00080040E7442B
:10523000551300080040B544191300086C120020F3
:10524000713A0008B512010859A00008ED4B00089A
:10525000052700081D990008F1A100087D9C0008A1
:105260003935000800406745004035450D46C047C8
:1052700002460B46204629462B4CA04728A3D3E9DB
:105280000023B847294B9847BAF1030F0446284B2F
:105290003ED92849984700283FD127492046274B27
:1052A0009847002814BF1F244FF4FC643146244A59
:1052B000244B02989847244B0246019300235946F9
:1052C000D22000932346069CA0470AF1010A1F4BF7
:1052D00098470BF1140BBAF1040F1FFA8BFB7FF404
:1052E000FFAEB9F8023023F00103A9F8023009B08B
:1052F000BDE8F08F4FF01F08A0E61F25DAE618463C
:1053000011E71349984708B9124948E71F244EE7A7
:105310000F49984708B90F49C0E71F24C6E700BFE7
:10532000E9263108AC1CF03F85090008210D000872
:105330005513000800406745004035451913000823
:10534000B60C0020713A000820000020B5120108B8
:1053500000003E430000DC4210B5154CA388012B31
:1053600015D1144B1B881A0511D5638B022B0CD059
:10537000114B9847114B984702236383104B984772
:10538000A38B23F00703A38310BD002363830D4B7E
:105390009847430707D40A4B9847084B9847A38B75
:1053A00043F00203EFE7084B9847084BF6E700BFCE
:1053B0002C4700208C120020194C000845A0000842
:1053C000B1A10008F1A10008C1A100081D990008C1
:1053D00008B538B1012819D0154A938B43F0020360
:1053E000938308BD134B144A03F1200153F8040BB7
:1053F0008B4242F8040BF9D1104B9847104A13889E
:1054000023F4007313800F4B9847E5E70E4B0A4ACD
:1054100003F1200153F8040B8B4242F8040BF9D13D
:10542000064B9847064A138843F40073EAE700BF27
:105430002C470020DC4101086C120020E523000805
:105440008C120020ED4B0008BC41010810B5074B41
:105450009847BDE810400020054A138843F40063D4
:105460001380044B5883044B184700BF3D3F00088E
:105470008C1200202C470020D1530008054B1B88BC
:105480001B0506D5044B588B80F001005883034B55
:10549000184770478C1200202C470020D153000879
:1054A000054A138883F400731380044A938B43F0F6
:1054B00002039383024B18478C1200202C470020D4
:1054C000ED4B0008E0230D480C2180F850300423F8
:1054D00080F853300A4BA0F851101B78094A80F825
:1054E0005430094B50301B88C380084B1B88038104
:1054F000074B1B884381074B184700BF560D002000
:10550000590C002000440040520D0020540D002092
:10551000500D0020B18C0008E4220B4B1A70382289
:10552000A3F801200022043303F8012C00F1340217
:1055300050F8041B904243F8041BF9D13821034A68
:105540000148034B184700BFBC4600200044004000
:10555000B18C0008F8B5124F124D3C460FCD0FC468
:105560000FCD0FC40FCD0FC40F4E2B680F4D23600E
:1055700034460FCD0FC40FCD0FC40FCD0FC42B6811
:10558000384623600A4C0B4DE38B43F40073E383EE
:10559000A8473046A847A38B43F0C003A383F8BDB8
:1055A000DC0C0020A03D0108100D0020D43D0108B6
:1055B0002C470020195500080B4B0C4A10B51A60F7
:1055C0000B4B0C4A0C4C1A600C4B0D4A1A600D4BDD
:1055D0000D4A1A600023E3820C4B9847A38B43F0DB
:1055E000C003A38310BD00BFD0470020DA5D0108CF
:1055F000AC4700202E5E01082C470020B047002059
:10560000D8470020B4470020E0470020C93E0008EA
:10561000034B5A88DA829A8B42F0C0029A83704711
:105620002C470020294B10B59A89B3F90200998BB9
:10563000824204D041F0C2019881998310BD043A9E
:10564000032A26D8DFE802F0022A2F3C1022204845
:105650009A80204A1064204A1068428822F004028E
:1056600042800022DA821D4A012402F10C001060FF
:105670002020147110731024002094715073507105
:10568000D07110725072DA62DA8841F003011A8127
:1056900099839A8B42F0C0029A83CFE714229A80B2
:1056A0000F4A9A62DDE7102209489A80094A10647D
:1056B000094A1068428822F0040242800122D1E7A0
:1056C00014229A80064A9A62F8E700BF2C4700200D
:1056D00094030020DC030020C0000020310C0020D7
:1056E0006E5B01080B4A30B5D36AD88899880138B7
:1056F00081420DDA1868B2F902404D1C9D80445475
:10570000002099881B685854938B43F002039383BD
:1057100030BD00BF2C4700200B4910B5CA6A9388E2
:10572000012B10D9013B14689BB29380E05C2E28BA
:1057300002BF108920F0020010810022E2548B8BFE
:1057400043F002038B8310BD2C470020034B1A89C2
:105750009A809A8B42F0C3029A8370472C470020AC
:105760000E4930B5CB6ADA889888013A904213DA4C
:105770001A8912F002020FD1451C9D802E251C684B
:10578000255498881C6822541A8942F002021A8112
:105790008B8B43F002038B8330BD00BF2C4700206E
:1057A000084AD16A0B8983F0010313F0010F14BF7B
:1057B0002D2020200B810B681870938B43F002037F
:1057C000938370472C4700200E4AD16AD08A0B89F8
:1057D00083F004030B810C4903F0040351F820000B
:1057E000418821F0040119434180908807493BB961
:1057F000074B41F82030938B43F0030393837047AA
:10580000044BF6E72C470020C0000020DC030020FA
:1058100094030020480300201A4A10B59189481FBC
:1058200083B2042B2BD89388174C1381152354F87B
:1058300020009380154B0529586521D1D08A144941
:1058400051F82010498811F0040104D0114959651C
:105850000421114B9362114B012403F10C001860D9
:1058600020201C711873102400209C7158735871EB
:10587000D8711981D362938B43F00303938310BDD6
:105880000021E8E72C47002024050020DC0300204D
:10589000C000002048030020145A0108310C0020E9
:1058A0002DE9F341804C2022E66A804B306801A943
:1058B0000130984700287CD0A389053B042B78D879
:1058C000DFE813F055002E000500B900D5000023D5
:1058D0000198B4F90250764FDFF8D881002D40F0DE
:1058E000A2800BB1019065803389E28AD90748BF55
:1058F000019B714944BF03F100430193019D6F4B2C
:10590000284653F822606E4B9847002840F091805B
:1059100028466C496C4B984700B16A4D756248E067
:1059200000230198B4F90250614FDFF88881002DFF
:1059300071D10BB1019065803389E28AD80748BFE5
:10594000019B624944BF03F100430193019D5B4BFE
:10595000284653F822605A4B9847002861D12846C0
:105960005B49594B984700B1594D356221E0338965
:10597000019813F00403B4F9025047D00023033D0B
:105980002DB24B4E4B4F6580E5B90BB10190658050
:105990004A4B019DE28A284653F822604549484B0C
:1059A0009847A8B928464B49474B984700B1494DFD
:1059B0003563E36943F0007343F0C303E36102B06E
:1059C000BDE8F0813946013DB0472DB20123DBE748
:1059D000384DEDE73946B0470123013D2DB2002D8A
:1059E000F8D10BB101906580344B019DE28A2846C5
:1059F00053F822603849324B984750B92846374906
:105A0000314B984700B1354DF561D2E7344E294FFF
:105A1000E5E7314DF8E74146013DB8472DB2012396
:105A200085E72A4DA1E74146013DB8472DB2012344
:105A300054E7214D72E733892A49DA0748BF019BB1
:105A4000E28A44BF03F100430193019D1B4B2846AA
:105A500053F822601A4B984738B9284622491A4B06
:105A6000984700B1204DB562A3E71E4DFBE733898F
:105A7000E28ADB0748BF019B1C4944BF03F1004396
:105A80000193019D0D4B284653F822600C4B98471B
:105A900038B9284616490C4B984700B1144DF562A9
:105AA00087E7124DFBE700BF2C4700206127000865
:105AB0004511000800007A4433335340C0000020F1
:105AC00055130008333353C0191300080000404039
:105AD000000040C000007AC400409C4600409CC6C4
